:020000040800F2
:1000000000400420091A00082B13000833130008CD
:100010003B130008431300084B130008591A00084B
:100020000000000000000000000000005313000862
:1000300061130008000000006F1300087D13000822
:10004000591A0008591A0008591A0008591A0008C4
:10005000591A0008591A0008591A0008591A0008B4
:10006000591A0008591A0008591A0008591A0008A4
:10007000591A0008591A0008591A0008591A000894
:10008000591A0008591A0008591A0008591A000884
:10009000591A0008591A0008591A0008591A000874
:1000A000591A0008591A0008591A0008591A000864
:1000B000591A0008591A0008591A0008591A000854
:1000C000591A0008591A0008591A0008591A000844
:1000D000591A0008591A0008591A0008591A000834
:1000E000591A0008591A0008591A0008591A000824
:1000F000591A0008591A0008591A0008591A000814
:10010000591A0008591A0008591A0008591A000803
:10011000591A0008591A0008591A0008591A0008F3
:10012000591A0008591A0008591A0008591A0008E3
:10013000591A0008591A0008591A0008591A0008D3
:10014000591A0008591A0008591A0008591A0008C3
:10015000591A0008591A0008591A0008591A0008B3
:100160000000000000000000591A0008591A000899
:10017000591A0008591A0008591A0008591A000893
:10018000591A0008591A0008591A000800000000FE
:1001900000000000591A00080000000000000000E4
:1001A0000000000000000000591A0008591A000859
:1001B000591A0008591A0008591A0008591A000853
:1001C000591A0008591A0008000000000000000039
:1001D000000000000000000000000000591A0008A4
:1001E000591A0008591A0008000000000000000019
:1001F000591A0008591A0008591A0008000000008E
:1002000000000000591A0008591A0008591A00087D
:10021000591A0008591A0008591A0008591A0008F2
:10022000591A00080000000000000000591A0008D8
:10023000591A000800000000000000000000000043
:10024000000000000000000000000000591A000833
:04025000591A00082F
:1002580010B5054C237833B9044B13B10448AFF3F8
:1002680000800123237010BDD4010020000000008D
:10027800B4BD000808B5034B1BB103490348AFF3ED
:10028800008008BD00000000D8010020B4BD0008AF
:10029800034613F8012B002AFBD1181A01387047BE
:1002A80081F0004102E000BF83F0004330B54FEA1F
:1002B80041044FEA430594EA050F08BF90EA020F8C
:1002C8001FBF54EA000C55EA020C7FEA645C7FEA1F
:1002D800655C00F0E2804FEA5454D4EB5555B8BF42
:1002E8006D420CDD2C4480EA020281EA030382EAB3
:1002F800000083EA010180EA020281EA0303362D45
:1003080088BF30BD11F0004F4FEA01314FF4801C17
:100318004CEA113102D0404261EB410113F0004F29
:100328004FEA03334CEA133302D0524263EB4303E0
:1003380094EA050F00F0A780A4F10104D5F1200E7E
:100348000DDB02FA0EFC22FA05F2801841F10001D9
:1003580003FA0EF2801843FA05F359410EE0A5F1AD
:1003680020050EF1200E012A03FA0EFC28BF4CF0DE
:10037800020C43FA05F3C01851EBE37101F0004594
:1003880007D54FF0000EDCF1000C7EEB00006EEBA1
:100398000101B1F5801F1BD3B1F5001F0CD349082B
:1003A8005FEA30004FEA3C0C04F101044FEA445282
:1003B80012F5800F80F09A80BCF1004F08BF5FEA09
:1003C800500C50F1000041EB045141EA050130BDE9
:1003D8005FEA4C0C404141EB0101013C28BFB1F5FB
:1003E800801FE9D291F0000F04BF01460020B1FA46
:1003F80081F308BF2033A3F10B03B3F120020CDA19
:100408000C3208DD02F1140CC2F10C0201FA0CF0F6
:1004180021FA02F10CE002F11402D8BFC2F1200C5B
:1004280001FA02F120FA0CFCDCBF41EA0C01904011
:10043800E41AA2BF01EB0451294330BD6FEA04045A
:100448001F3C1CDA0C340EDC04F11404C4F1200245
:1004580020FA04F001FA02F340EA030021FA04F357
:1004680045EA030130BDC4F10C04C4F1200220FAAE
:1004780002F001FA04F340EA0300294630BD21FAEC
:1004880004F0294630BD94F0000F83F4801306BFB2
:1004980081F480110134013D4EE77FEA645C18BFA6
:1004A8007FEA655C29D094EA050F08BF90EA020F3D
:1004B80005D054EA000C04BF1946104630BD91EA35
:1004C800030F1EBF0021002030BD5FEA545C05D138
:1004D8004000494128BF41F0004130BD14F5800477
:1004E8003CBF01F5801130BD01F0004545F0FE41EB
:1004F80041F470014FF0000030BD7FEA645C1ABF20
:10050800194610467FEA655C1CBF0B46024650EA56
:10051800013406BF52EA033591EA030F41F4002182
:1005280030BD00BF90F0000F04BF0021704730B508
:100538004FF4806404F132044FF000054FF00001DD
:1005480050E700BF90F0000F04BF0021704730B59E
:100558004FF4806404F1320410F0004548BF404273
:100568004FF000013EE700BF42004FEAE2014FEAC8
:1005780031014FEA02701FBF12F07F4393F07F4FA3
:1005880081F06051704732F07F4208BF704793F0A6
:100598007F4F04BF41F40021704730B54FF46074B9
:1005A80001F0004521F000411CE700BF50EA0102BC
:1005B80008BF704730B54FF000050AE050EA010265
:1005C80008BF704730B511F0004502D5404261EBD5
:1005D80041014FF4806404F132045FEA915C3FF416
:1005E800D8AE4FF003025FEADC0C18BF03325FEAB3
:1005F800DC0C18BF033202EBDC02C2F1200300FA64
:1006080003FC20FA02F001FA03FE40EA0E0021FA88
:1006180002F11444BDE600BF70B54FF0FF0C4CF476
:10062800E06C1CEA11541DBF1CEA135594EA0C0F28
:1006380095EA0C0F00F0DEF82C4481EA030621EA63
:100648004C5123EA4C5350EA013518BF52EA03359E
:1006580041F4801143F4801338D0A0FB02CE4FF050
:100668000005E1FB02E506F00042E0FB03E54FF080
:100678000006E1FB03569CF0000F18BF4EF0010E78
:10068800A4F1FF04B6F5007F64F5407404D25FEA74
:100698004E0E6D4146EB060642EAC62141EA555127
:1006A8004FEAC52040EA5E504FEACE2EB4F1FD0C69
:1006B80088BFBCF5E06F1ED8BEF1004F08BF5FEAE7
:1006C800500E50F1000041EB045170BD06F0004699
:1006D80046EA010140EA020081EA0301B4EB5C0446
:1006E800C2BFD4EB0C0541EA045170BD41F480113E
:1006F8004FF0000E013C00F3AB8014F1360FDEBF63
:10070800002001F0004170BDC4F10004203C35DA3E
:100718000C341BDC04F11404C4F1200500FA05F3C1
:1007280020FA04F001FA05F240EA020001F0004262
:1007380021F0004110EBD37021FA04F642EB0601D8
:100748005EEA430E08BF20EAD37070BDC4F10C0402
:10075800C4F1200500FA04F320FA05F001FA04F2C6
:1007680040EA020001F0004110EBD37041F10001B2
:100778005EEA430E08BF20EAD37070BDC4F12005BD
:1007880000FA05F24EEA020E20FA04F301FA05F225
:1007980043EA020321FA04F001F0004121FA04F2CD
:1007A80020EA020000EBD3705EEA430E08BF20EA9D
:1007B800D37070BD94F0000F0FD101F000464000D7
:1007C80041EB010111F4801F08BF013CF7D041EA59
:1007D800060195F0000F18BF704703F0004652005D
:1007E80043EB030313F4801F08BF013DF7D043EA2E
:1007F8000603704794EA0C0F0CEA135518BF95EAE4
:100808000C0F0CD050EA410618BF52EA4306D1D16A
:1008180081EA030101F000414FF0000070BD50EA89
:10082800410606BF1046194652EA430619D094EA13
:100838000C0F02D150EA013613D195EA0C0F05D1FD
:1008480052EA03361CBF104619460AD181EA030151
:1008580001F0004141F0FE4141F470014FF0000009
:1008680070BD41F0FE4141F4780170BD70B54FF0A4
:10087800FF0C4CF4E06C1CEA11541DBF1CEA135524
:1008880094EA0C0F95EA0C0F00F0A7F8A4EB050406
:1008980081EA030E52EA03354FEA013100F08880FD
:1008A8004FEA03334FF0805545EA131343EA1263C6
:1008B8004FEA022245EA111545EA10654FEA00267B
:1008C8000EF000419D4208BF964244F1FD0404F534
:1008D800407402D25B084FEA3202B61A65EB030590
:1008E8005B084FEA32024FF480104FF4002CB6EB4D
:1008F800020E75EB030E22BFB61A754640EA0C00CD
:100908005B084FEA3202B6EB020E75EB030E22BF0C
:10091800B61A754640EA5C005B084FEA3202B6EB4D
:10092800020E75EB030E22BFB61A754640EA9C000C
:100938005B084FEA3202B6EB020E75EB030E22BFDC
:10094800B61A754640EADC0055EA060E18D04FEA9A
:10095800051545EA16754FEA06164FEAC30343EA3A
:1009680052734FEAC2025FEA1C1CC0D111F4801F07
:100978000BD141EA00014FF000004FF0004CB6E700
:1009880011F4801F04BF01430020B4F1FD0C88BF9F
:10099800BCF5E06F3FF6AFAEB5EB030C04BFB6EBAA
:1009A800020C5FEA500C50F1000041EB045170BD9D
:1009B8000EF0004E4EEA113114EB5C04C2BFD4EBCA
:1009C8000C0541EA045170BD41F480114FF0000E4E
:1009D800013C90E645EA060E8DE60CEA135594EACA
:1009E8000C0F08BF95EA0C0F3FF43BAF94EA0C0FCD
:1009F8000AD150EA01347FF434AF95EA0C0F7FF442
:100A080025AF104619462CE795EA0C0F06D152EA95
:100A180003353FF4FDAE1046194622E750EA410679
:100A280018BF52EA43067FF4C5AE50EA41047FF48A
:100A38000DAF52EA43057FF4EBAE12E74FF0FF3CEF
:100A480006E000BF4FF0010C02E000BF4FF0010CC0
:100A58004DF804CD4FEA410C7FEA6C5C4FEA430C39
:100A680018BF7FEA6C5C1BD001B050EA410C0CBF88
:100A780052EA430C91EA030F02BF90EA020F0020EA
:100A8800704710F1000F91EA030F58BF994208BF51
:100A980090422CBFD8176FEAE37040F0010070470E
:100AA8004FEA410C7FEA6C5C02D150EA013C07D165
:100AB8004FEA430C7FEA6C5CD6D152EA033CD3D0B0
:100AC8005DF8040B704700BF8446104662468C46AA
:100AD8001946634600E000BF01B5FFF7B7FF0028DD
:100AE80048BF10F1000F01BD4DF808EDFFF7F4FF06
:100AF8000CBF012000205DF808FB00BF4DF808ED91
:100B0800FFF7EAFF34BF012000205DF808FB00BFB3
:100B18004DF808EDFFF7E0FF94BF012000205DF8D5
:100B280008FB00BF4DF808EDFFF7CEFF94BF01208A
:100B380000205DF808FB00BF4DF808EDFFF7C4FF83
:100B480034BF012000205DF808FB00BF4FEA410CCC
:100B58007FEA6C5C02D150EA013C0AD14FEA430CAF
:100B68007FEA6C5C02D152EA033C02D14FF00000EC
:100B780070474FF0010070474FEA410212F500122A
:100B880015D211D56FF47873B3EB625212D94FEACC
:100B9800C12343F0004343EA505311F0004F23FAB6
:100BA80002F018BF404270474FF00000704750EA0B
:100BB800013005D111F0004008BF6FF000407047C8
:100BC8004FF00000704700BF4A0011D212F5001222
:100BD80011D20DD56FF47873B3EB62520ED44FEA8D
:100BE800C12343F0004343EA505323FA02F070470D
:100BF8004FF00000704750EA013002D14FF0FF304B
:100C080070474FF0000070474FEA4102B2F1E043ED
:100C180024BFB3F5001CDCF1FE5C0DD901F0004CDB
:100C28004FEAC0024CEA5070B2F1004F40EB83002B
:100C380008BF20F00100704711F0804F21D113F157
:100C48003872BCBF01F00040704741F480114FEA90
:100C58005252C2F11802C2F1200C10FA0CF320FA19
:100C680002F018BF40F001004FEAC1234FEAD32336
:100C780003FA0CFC40EA0C0023FA02F34FEA4303A0
:100C8800CCE77FEA625307D150EA01331EBF4FF029
:100C9800FE4040F44000704701F0004040F0FE4044
:100CA80040F40000704700BF53B94AB9002908BF93
:100CB80000281CBF4FF0FF314FF0FF3000F0E8B9BB
:100CC800ADF1080C6DE904CE00F03CF8DDF804E065
:100CD800DDE9022304B0704738B50022002304463A
:100CE8000D46FFF70BFF28B920462946BDE83840D6
:100CF80000F00AB8204605F1004100F005F840422E
:100D080061EB410138BD00BFD0B500220B4B064650
:100D18000F46FFF781FCFFF757FF0446FFF702FC79
:100D28000022074BFFF778FC02460B46304639464F
:100D3800FFF7BAFAFFF748FF2146D0BD0000F03DA3
:100D48000000F0412DE9F04F8C46099E04460F46FD
:100D5800002B48D18A4215465ED9B2FA82F33BB1DC
:100D6800C3F120029F409D409C4020FA02F21743A5
:100D78004FEA154E1FFA85FC220CB7FBFEF10EFB5D
:100D8800117701FB0CF042EA0742904207D9AA18F2
:100D980001F1FF3702D2904200F258813946121A07
:100DA800A4B2B2FBFEF00EFB102200FB0CFC44EADE
:100DB8000244A4450BD92C1900F1FF322CBF01279E
:100DC8000027A44502D9002F00F04381104640EACD
:100DD8000140A4EB0C0400211EB1DC400023C6E94D
:100DE8000043BDE8F08F8B4206D90EB1C6E9000179
:100DF80000210846BDE8F08FB3FA83F1002951D1EC
:100E08006345C0F01681824240F213810846002EE5
:100E1800E7D0C6E90047E4E7002A00F0AF80B2FA5D
:100E280082F3002B40F0C2808A1A4FEA154EAFB207
:100E38000121200CB2FBFEFC0EFB1C2240EA024200
:100E480007FB0CF090420ED9AA180CF1FF382CBF02
:100E58004FF001094FF00009904203D9B9F1000F92
:100E680000F0F080C446121AA4B2B2FBFEF00EFBEA
:100E7800102200FB07F744EA0244A7420ED92C19B6
:100E880000F1FF322CBF4FF0010E4FF0000EA742C9
:100E980003D9BEF1000F00F0D2801046E41B40EAEF
:100EA8000C4099E7C1F120058B400CFA01F400FAD7
:100EB80001F922FA05F72CFA05FC8A401F4320FAAB
:100EC80005F3380C23431FFA87FE1C0CBCFBF0F813
:100ED80000FB18CC44EA0C4408FB0EFCA4450ED9D0
:100EE8003C1908F1FF3A2CBF4FF0010B4FF0000BF3
:100EF800A44503D9BBF1000F00F0B880D046A4EB9D
:100F08000C041FFA83FCB4FBF0F300FB134403FB4F
:100F18000EFE4CEA0444A6450ED93C1903F1FF30F5
:100F28002CBF4FF0010C4FF0000CA64503D9BCF1C3
:100F3800000F00F09F80034643EA0840A4EB0E042C
:100F4800A0FB02EC64457346E04602D307D1F145A5
:100F580005D2BEEB02036CEB070C0138E0465EB12C
:100F6800B9EB030264EB080404FA05F522FA01F36D
:100F7800CC401D43C6E90054002132E742082F4601
:100F88004B08AC4642EAC172AE46C407110C92B295
:100F980041EA034142EA0142B1FBF5F1B3FBF5F046
:100FA8001F23A2EB0C0241EA004142E79D40C3F136
:100FB800200299409C402CFA02FC4FEA154E20FA78
:100FC80002F2AFB2BCFBFEF80A430EFB18CC110CC0
:100FD80041EA0C4108FB07FC8C4550D9691808F117
:100FE800FF302CBF4FF001094FF000098C4502D9A2
:100FF800B9F1000F30D0A1EB0C01B1FBFEF808FBF2
:1010080007FC0EFB181192B242EA0142624534D243
:10101800AA1808F1FF312CBF4FF001094FF0000961
:101028006245BED2B9F1000FBBD1A8F102012A4432
:10103800B7E7841A6CEB030201201746E7E62C4455
:1010480002382BE7ACF1020C2A440CE702392A4497
:10105800A5E62C440238BAE6A5EB0C0CA8F1020070
:101068006144B1FBFEF808FB07FCCAE7A8F10208D7
:101078003C4444E7023B3C445EE7414691E7A1EB30
:101088000C014046B1FBFEF808FB07FCB9E700BFBE
:10109800704700BF80B58AB000AF07F11403002283
:1010A8001A605A609A60DA601A61304BD3F88C3053
:1010B8002E4A43F00403C2F88C302C4BD3F88C3002
:1010C80003F004033B613B69284BD3F88C30274A73
:1010D80043F08003C2F88C30244BD3F88C3003F0F3
:1010E8008003FB60FB68214BD3F88C301F4A43F028
:1010F8000103C2F88C301D4BD3F88C3003F0010388
:10110800BB60BB68194BD3F88C30184A43F0020314
:10111800C2F88C30154BD3F88C3003F002037B6097
:101128007B6800222021124801F050F84FF4005348
:101138007B610023BB610023FB6107F1140319469F
:101148000C4800F0CDFE20237B610123BB61002306
:10115800FB6100233B6207F114031946044800F0C1
:10116800BFFE00BF2837BD4680BD00BF000C02444B
:10117800000002420008024280B500AF002001F0E2
:101188003DF80346002B01D000F0BEF801F056F8F8
:101198000346002B01D000F0B7F800BF80BD000067
:1011A80080B588B000AF00F055FC00F03BF8FFF7C1
:1011B80071FFFFF7E1FF00F06FFB00F023FA00F08A
:1011C80075FA4FF40051134800F0E8FF0346012B6D
:1011D8001AD101222021104800F0F8FF3B460F49A0
:1011E800184607F085F93B461846FFF751F80346BD
:1011F8009AB239464FF0FF33094805F0DDFC4FF449
:101208007A7000F0E5FCDCE700222021024800F0BB
:10121800DDFFD6E70008024200000242D0BD000808
:101228008C02002080B59CB000AF07F1200350224B
:101238000021184607F0C2F907F1080300221A60D6
:101248005A609A60DA601A615A612D4B1B692C4A00
:1012580043F0300313612A4B1B6903F030037B60B2
:101268007B6800BF264B5B6903F00803082BF9D1A4
:1012780001233B624FF4A0237B620223BB64032358
:10128800FB6401233B653E237B650223BB65022388
:10129800FB6502233B660C237B660023BB664FF489
:1012A8008053FB6607F12003184600F0D7FF03467A
:1012B800002B01D000F028F81F23BB600323FB603C
:1012C80000233B6100237B610023BB610023FB619A
:1012D80007F108030521184601F0F8FB0346002B27
:1012E80001D000F011F8074B1B6823F03003054AC2
:1012F80043F02003136000BF7037BD4680BD00BFB8
:10130800000802440020024080B400AF72B600BF5B
:1013180000BFFDE780B400AF00BFBD465DF8047BA9
:10132800704780B400AF00BFFDE780B400AF00BFD6
:10133800FDE780B400AF00BFFDE780B400AF00BF99
:10134800FDE780B400AF00BFFDE780B400AF00BF89
:10135800BD465DF8047B704780B400AF00BFBD4652
:101368005DF8047B704780B400AF00BFBD465DF8F0
:10137800047B704780B500AF00F00AFC00BF80BD59
:1013880080B400AF01231846BD465DF8047B704762
:1013980080B582B000AF7860396007F061F9034624
:1013A80016221A604FF0FF3318460837BD4680BD35
:1013B80080B582B000AF78604FF0FF317868FFF7F2
:1013C800E7FF00BFFDE780B586B000AFF860B96001
:1013D8007A6000237B610AE0AFF300800146BB68B6
:1013E8005A1CBA60CAB21A707B6901337B617A6988
:1013F8007B689A42F0DB7B6818461837BD4680BD8B
:1014080080B586B000AFF860B9607A6000237B6170
:1014180009E0BB685A1CBA601B781846AFF3008015
:101428007B6901337B617A697B689A42F1DB7B686F
:1014380018461837BD4680BD80B483B000AF7860C9
:101448004FF0FF3318460C37BD465DF8047B7047F4
:1014580080B483B000AF786039603B684FF40052C5
:101468005A60002318460C37BD465DF8047B704768
:1014780080B483B000AF7860012318460C37BD46AE
:101488005DF8047B704780B485B000AFF860B96040
:101498007A60002318461437BD465DF8047B704710
:1014A80080B586B000AF7860144A154BD31A7B61BB
:1014B8007B693B61134B1B68002B02D1114B124A0D
:1014C8001A60104B1A687B6813443A699A4207D22B
:1014D80007F0C6F803460C221A604FF0FF3309E004
:1014E800084B1B68FB60074B1A687B681344054A66
:1014F8001360FB6818461837BD4680BD00400420BD
:1015080000040000F00100207004002080B483B0C3
:1015180000AF354BD3F88830334A43F47003C2F830
:101528008830324B01221A60304B0022DA612F4B8F
:1015380000221A622D4B1A682C492D4B13400B6060
:101548002A4B00229A62294B0022DA62274B00229A
:101558001A63264B274A5A63244B00229A63234B6B
:10156800244ADA63214B00221A64204B214A5A6428
:101578001E4B00229A641D4B1B681C4A23F48023CF
:1015880013601A4B00221A65174B4FF000629A60DD
:10159800194B9B6903F060437B607B68B3F1604F34
:1015A80003D07B68B3F1404F17D1134BDB6903F0CD
:1015B8000103002B05D0104B104ADA600E4B104A7D
:1015C800DA600D4BDB690C4A43F00203D3610A4B26
:1015D800DB69094A43F00103D36100BF0C37BD46FC
:1015E8005DF8047B704700BF00ED00E0000C02448A
:1015F800E3EAE2EA80020101002002403B2A1908DE
:101608007F6E5D4C80B58CB000AF07F10C032422CF
:101618000021184606F0D2FF3B4600221A605A60A5
:101628009A60214B4FF080421A601F4B00225A608B
:101638001D4B00229A601C4B4FF0FF32DA601A4BA8
:1016480000221A61184B00229A610123FB600023D3
:101658003B6101237B610023BB610023FB61002305
:101668003B6201237B620023BB620023FB6207F11C
:101678000C0319460C4804F0EFFF0346002B01D079
:10168800FFF742FE00233B600023BB603B46194640
:10169800054805F071F90346002B01D0FFF734FE29
:1016A80000BF3037BD4680BDF401002080B58CB046
:1016B80000AF07F10C0324220021184606F07EFF34
:1016C8003B4600221A605A609A60214B214A1A60F0
:1016D8001F4B00225A601E4B00229A601C4B4FF091
:1016E800FF32DA601A4B00221A61194B00229A6104
:1016F8000123FB6000233B6101237B610023BB6165
:101708000023FB6100233B6201237B620023BB6251
:101718000023FB6207F10C0319460D4804F09CFFF7
:101728000346002B01D0FFF7EFFD00233B600023A9
:10173800BB603B461946064805F01EF90346002BD8
:1017480001D0FFF7E1FD00BF3037BD4680BD00BFC7
:1017580040020020000C004080B58CB000AF7860DB
:1017680007F11C0300221A605A609A60DA601A6155
:101778007B681B68B3F1804F4ED1434BD3F89C3044
:10178800414A43F00103C2F89C303F4BD3F89C30E8
:1017980003F00103BB61BB693B4BD3F88C303A4A79
:1017A80043F00103C2F88C30374BD3F88C3003F088
:1017B80001037B617B69344BD3F88C30324A43F0A8
:1017C8000203C2F88C30304BD3F88C3003F002039C
:1017D8003B613B694FF40043FB6102233B620023FA
:1017E8007B620023BB620123FB6207F11C031946DD
:1017F800264800F075FB0823FB6102233B620023A7
:101808007B620023BB620123FB6207F11C031946BC
:101818001F4800F065FB32E07B681B681D4A934255
:101828002DD1194BD3F89C30174A43F00803C2F85E
:101838009C30154BD3F89C3003F00803FB60FB6821
:10184800114BD3F88C30104A43F00103C2F88C30A6
:101858000D4BD3F88C3003F00103BB60BB68032346
:10186800FB6102233B6200237B620023BB620223ED
:10187800FB6207F11C031946044800F031FB00BF66
:101888003037BD4680BD00BF000C02440000024254
:1018980000040242000C004080B500AF224B234AEE
:1018A8001A60214B4FF4E1325A601F4B00229A60B4
:1018B8001D4B0022DA601C4B00221A611A4B0C22C5
:1018C8005A61194B00229A61174B0022DA61164BB4
:1018D80000221A62144B00225A62134B00229A62A9
:1018E800114805F019F90346002B01D0FFF70CFD4C
:1018F80000210D4805F004FE0346002B01D0FFF738
:1019080003FD0021084805F039FE0346002B01D0ED
:10191800FFF7FAFC044805F0BAFD0346002B01D096
:10192800FFF7F2FC00BF80BD8C020020004400409D
:1019380080B5BEB000AF786007F1E40300221A60FA
:101948005A609A60DA601A6107F11003D022002108
:10195800184606F033FE7B681B68264A934244D13A
:101968004FF002024FF00003C7E9042300233B674E
:1019780007F11003184601F0EBFB0346002B01D0DA
:10198800FFF7C2FC1C4BD3F89C301B4A43F40033CE
:10199800C2F89C30184BD3F89C3003F40033FB603A
:1019A800FB68154BD3F88C30134A43F00103C2F897
:1019B8008C30114BD3F88C3003F00103BB60BB684B
:1019C8000C23C7F8E4300223C7F8E8300023C7F82F
:1019D800EC300023C7F8F0300723C7F8F43007F1DC
:1019E800E4031946054800F07BFA00BFF837BD4606
:1019F80080BD00BF00440040000C024400000242C9
:101A08000D488546FFF782FD0C480D490D4A002315
:101A180002E0D458C4500433C4188C42F9D30A4A9B
:101A28000A4C002301E013600432A242FBD306F003
:101A38001DFEFFF7B5FBFEE7004004200000002074
:101A4800D401002054C20008D401002070040020F2
:101A5800FEE7000080B500AF032000F06CF901F04C
:101A6800EDF902460C4B1B6A03F00F030B49CB5CE4
:101A780022FA03F30A4A1360042000F0A3F90F20A6
:101A880000F010F80346002B01D0012302E0FFF715
:101A980041FC0023184680BD000C0244D8BD000854
:101AA8000000002080B584B000AF78600023FB60A0
:101AB800334B1B78002B01D101235CE0314B1B68B1
:101AC80003F00403042B0CD12F4B1A682C4B1B7802
:101AD80019464FF47A73B3FBF1F3B2FBF3F3FB60EF
:101AE80037E000F0C7F9B860BB68022B23D0BB68A9
:101AF800022B2DD8BB68002B03D0BB68012B0DD05F
:101B080026E0214B1A681E4B1B7819464FF4FA53EE
:101B1800B3FBF1F3B2FBF3F3FB601AE0184B1B784D
:101B28001A464FF47A73B3FBF2F34FF4FA42B2FB5E
:101B3800F3F3FB600DE0124B1B781A464FF47A73EF
:101B4800B3FBF2F34FF40042B2FBF3F3FB6000E0A7
:101B580000BFF86800F014F90346002B01D00123F8
:101B680009E0002279684FF0FF3000F0EFF8074AEB
:101B78007B681360002318461037BD4680BD00BF40
:101B88000800002010E000E0000000200400002011
:101B980080B400AF064B1B781A46064B1B681344EB
:101BA800044A136000BFBD465DF8047B704700BF60
:101BB800080000202003002080B400AF034B1B68FE
:101BC8001846BD465DF8047B704700BF200300201F
:101BD80080B584B000AF7860FFF7EEFFB8607B682F
:101BE800FB60FB68B3F1FF3F05D00A4B1B781A4630
:101BF800FB681344FB6000BFFFF7DEFF0246BB68CB
:101C0800D31AFA689A42F7D800BF00BF1037BD460A
:101C180080BD00BF0800002080B485B000AF7860A8
:101C28007B6803F00703FB600C4BDB68BB60BA689A
:101C38004FF6FF031340BB60FB681A02BB681343EF
:101C480043F0BF6343F40033BB60044ABB68D3600E
:101C580000BF1437BD465DF8047B704700ED00E017
:101C680080B400AF044BDB681B0A03F00703184677
:101C7800BD465DF8047B704700ED00E080B483B09A
:101C880000AF03463960FB80B7F90630002B0ADB4A
:101C98003B68DAB20C49B7F906301201D2B20B44EC
:101CA80083F800230AE03B68DAB20849FB8803F0AE
:101CB8000F03043B1201D2B20B441A7600BF0C3753
:101CC800BD465DF8047B704700E100E000ED00E0F0
:101CD80080B489B000AFF860B9607A60FB6803F03F
:101CE8000703FB61FB69C3F10703042B28BF042327
:101CF800BB61FB690433062B02D9FB69033B00E097
:101D080000237B614FF0FF32BB6902FA03F3DA4329
:101D1800BB681A407B699A404FF0FF317B6901FA32
:101D280003F3D9437B680B40134318462437BD4659
:101D38005DF8047B704780B582B000AF7860786842
:101D4800FFF76AFF00BF0837BD4680BD80B586B083
:101D580000AF0346B9607A60FB81FFF781FF7861C5
:101D68007A68B9687869FFF7B3FF0246B7F90E30A9
:101D780011461846FFF782FF00BF1837BD4680BDE1
:101D880080B483B000AF78607B68013BB3F1807F9B
:101D980001D301230DE00A4A7B68013B5360084BDD
:101DA80000229A60064B1B68054A43F00303136040
:101DB800002318460C37BD465DF8047B704700BF0A
:101DC80010E000E080B483B000AF78607B68042B3B
:101DD80044D801A252F823F0031E0008211E00086F
:101DE800431E0008651E0008F51D00081F4B1B68F0
:101DF8001E4A43F00403136031E01C4B1B681B4A66
:101E080023F0040313601A4BD3F8E430184A23F084
:101E18000C03C2F8E43022E0144B1B68134A23F089
:101E280004031360124BD3F8E43023F00C03104A78
:101E380043F00403C2F8E43011E00C4B1B680B4A72
:101E480023F0040313600A4BD3F8E43023F00C03A7
:101E5800074A43F00803C2F8E43000E000BF00BFBF
:101E68000C37BD465DF8047B704700BF10E000E00A
:101E7800000C024480B483B000AF174B1B6803F01A
:101E88000403002B02D004237B601EE0134BD3F81D
:101E9800E43003F00C033B603B68082B0FD03B6831
:101EA800082B0FD83B68002B03D03B68042B03D0CA
:101EB80008E000237B6008E001237B6005E0022343
:101EC8007B6002E000237B6000BF7B6818460C370C
:101ED800BD465DF8047B704710E000E0000C02444A
:101EE80080B487B000AF7860396000233B6142E17D
:101EF8003B681A6801213B6901FA03F31340FB6050
:101F0800FB68002B00F034813B685B68022B03D030
:101F18003B685B68122B25D13B69DA087B6808327D
:101F280053F822307B613B6903F007039B000F22C3
:101F380002FA03F3DB437A6913407B613B681B6950
:101F480003F00F023B6903F007039B0002FA03F357
:101F58007A6913437B613B69DA087B6808327969DF
:101F680043F822107B681B687B613B695B00032296
:101F780002FA03F3DB437A6913407B613B685B68D1
:101F880003F003023B695B0002FA03F37A69134327
:101F98007B617B687A691A603B685B68012B0BD0B0
:101FA8003B685B68022B07D03B685B68112B03D04A
:101FB8003B685B68122B30D17B689B687B613B690F
:101FC8005B00032202FA03F3DB437A6913407B6167
:101FD8003B68DA683B695B0002FA03F37A691343EA
:101FE8007B617B687A699A607B685B687B610122A8
:101FF8003B6902FA03F3DB437A6913407B613B6870
:102008005B681B0903F001023B6902FA03F37A6972
:1020180013437B617B687A695A603B685B6803F0AD
:102028000303032B09D13B685B6803F00303032B0D
:102038001BD13B689B68012B17D07B68DB687B61F1
:102048003B695B00032202FA03F3DB437A6913401E
:102058007B613B689A683B695B0002FA03F37A6923
:1020680013437B617B687A69DA603B685B6803F0DD
:102078008053002B7CD0474A3B699B08183352F8A1
:1020880023307B613B6903F00303DB000F2202FA74
:1020980003F3DB437A6913407B617B689A0A3E4B02
:1020A80013403A6902F00302D20093407A6913435D
:1020B8007B6138493B699B0818337A6941F82320CA
:1020C800344B1B687B61FB68DB437A6913407B6197
:1020D8003B685B6803F48013002B03D07A69FB68C4
:1020E80013437B612B4A7B6913602A4B5B687B61D6
:1020F800FB68DB437A6913407B613B685B6803F4E8
:102108000013002B03D07A69FB6813437B61214AD3
:102118007B6953601F4BD3F884307B61FB68DB43DA
:102128007A6913407B613B685B6803F40033002BDA
:1021380003D07A69FB6813437B61164A7B69C2F84E
:102148008430144BD3F880307B61FB68DB437A69B9
:1021580013407B613B685B6803F48033002B03D03A
:102168007A69FB6813437B610A4A7B69C2F880304D
:102178003B6901333B613B681A683B6922FA03F308
:10218800002B7FF4B5AE00BF00BF1C37BD465DF81D
:10219800047B7047002002447F7F2F0080B485B005
:1021A80000AF78600B467B807B681A697B88134098
:1021B800002B02D00123FB7301E00023FB73FB7BA0
:1021C80018461437BD465DF8047B704780B483B069
:1021D80000AF78600B467B8013467B707B78002BC2
:1021E80003D07A887B689A6102E07A887B689A6271
:1021F80000BF0C37BD465DF8047B704780B485B0DE
:1022080000AF78600023FB730B4B1B6803F00103DE
:10221800002B02D00123FB7307E0074B1B6823F058
:10222800040205497B6813430B60FB7B184614378F
:10223800BD465DF8047B70470004034080B400AFDE
:10224800054B1B68044A43F001031360002318463A
:10225800BD465DF8047B70470004034080B588B034
:1022680000AF78607B68002B02D1012300F028BC06
:10227800944BDB6903F01803FB61924B9B6A03F0F4
:102288000303BB617B681B6803F01003002B5BD062
:10229800FB69082B05D0FB69182B14D1BB69022BED
:1022A80011D17B68DB69002B02D1012300F008BC47
:1022B800844B9B6923F47C127B681B6A1B0481494D
:1022C80013438B6140E07B68DB69002B23D07D4B97
:1022D8001B687C4A43F480731360FFF76DFC7861D8
:1022E80008E0FFF769FC02467B69D31A022B01D983
:1022F8000323E5E3734B1B6803F40073002BF0D052
:10230800704B9B6923F47C127B681B6A1B046D4924
:1023180013438B6118E06B4B1B686A4A23F4807384
:102328001360FFF749FC786108E0FFF745FC0246B7
:102338007B69D31A022B01D90323C1E3614B1B68C4
:1023480003F40073002BF0D17B681B6803F00103D2
:10235800002B00F0A080FB69102B05D0FB69182B1F
:1023680009D1BB69032B06D17B685B68002B40F061
:1023780092800123A4E37B685B68B3F5803F06D1B4
:10238800504B1B684F4A43F48033136058E07B6816
:102398005B68002B12D14B4B1B684A4A23F48033ED
:1023A8001360484B1B68474A23F480131360454B5E
:1023B8001B68444A23F48023136041E07B685B6810
:1023C800B3F5A02F12D13F4B1B683E4A43F480233C
:1023D80013603C4B1B683B4A23F480131360394B52
:1023E8001B68384A43F48033136029E07B685B68D4
:1023F800B3F5A81F12D1334B1B68324A43F480232C
:102408001360304B1B682F4A43F4801313602D4B25
:102418001B682C4A43F48033136011E0294B1B6876
:10242800284A23F480331360264B1B68254A23F47B
:1024380080231360234B1B68224A23F48013136004
:102448007B685B68002B13D0FFF7B6FB786108E068
:10245800FFF7B2FB02467B69D31A642B01D9032329
:102468002EE3184B1B6803F40033002BF0D012E066
:10247800FFF7A2FB786108E0FFF79EFB02467B6945
:10248800D31A642B01D903231AE30E4B1B6803F4F8
:102498000033002BF0D17B681B6803F00203002B8C
:1024A80000F09A80FB69002B05D0FB69182B49D1F5
:1024B800BB69012B46D17B68DB68002B04D1012363
:1024C800FEE200BF000C0244FB69002B1CD19A4BB2
:1024D8001B6803F018027B681B699A4214D0964B5C
:1024E8001B6823F018027B681B69934913430B6030
:1024F80000F0D0FD914B1B681846FFF7D3FA03464E
:10250800002B01D00123DBE2FFF756FB786108E0DE
:10251800FFF752FB02467B69D31A022B01D903232A
:10252800CEE2854B1B6803F00203002BF0D0824BF0
:102538001B6923F4FE027B685B691B047E49134315
:102548000B6149E07B68DB68002B2CD07A4B1B6859
:1025580023F018027B681B69774913430B60764B9D
:102568001B68754A43F001031360FFF725FB786188
:1025780008E0FFF721FB02467B69D31A022B01D939
:1025880003239DE26C4B1B6803F00203002BF0D081
:10259800694B1B6923F4FE027B685B691B0466496F
:1025A80013430B6118E0644B1B68634A23F0010373
:1025B8001360FFF701FB786108E0FFF7FDFA0246B8
:1025C8007B69D31A022B01D9032379E25A4B1B6882
:1025D80003F00203002BF0D17B681B6803F00803AB
:1025E800002B3CD07B689B69002B1CD0524BD3F846
:1025F800F030514A43F08063C2F8F030FFF7DCFA5C
:10260800786108E0FFF7D8FA02467B69D31A022BF3
:1026180001D9032354E2484BD3F8F03003F00063A8
:10262800002BEFD01BE0444BD3F8F030424A23F0A4
:102638008063C2F8F030FFF7BFFA786108E0FFF76F
:10264800BBFA02467B69D31A022B01D9032337E26E
:10265800394BD3F8F03003F00063002BEFD17B68DF
:102668001B6803F00403002B00F0D280344B5B6A34
:1026780003F00103002B18D1314B5B6A304A43F059
:1026880001035362FFF798FA786108E0FFF794FABC
:1026980002467B69D31A022B01D9032310E2284B87
:1026A8005B6A03F00103002BF0D07B689B68012B69
:1026B80008D1214BD3F8F0301F4A43F00103C2F888
:1026C800F03074E07B689B68002B18D11A4BD3F864
:1026D800F030194A23F00103C2F8F030164BD3F852
:1026E800F030154A23F08003C2F8F030124BD3F8CB
:1026F800F030114A23F00403C2F8F03057E07B6849
:102708009B68052B1ED10C4BD3F8F0300A4A43F0D6
:102718000403C2F8F030084BD3F8F030064A23F02F
:102728008003C2F8F030044BD3F8F030024A43F08B
:102738000103C2F8F0303AE0000C02440400002023
:10274800000802447B689B68852B18D1A24BD3F8FC
:10275800F030A14A43F00403C2F8F0309E4BD3F89E
:10276800F0309D4A43F08003C2F8F0309A4BD3F81A
:10277800F030994A43F00103C2F8F03017E0964B65
:10278800D3F8F030944A23F00103C2F8F030924BAA
:10279800D3F8F030904A23F00403C2F8F0308E4B9F
:1027A800D3F8F0308C4A23F08003C2F8F0307B680D
:1027B8009B68002B16D0FFF7FFF978610AE0FFF756
:1027C800FBF902467B69D31A41F28832934201D958
:1027D800032375E1804BD3F8F03003F00203002B9C
:1027E800EDD015E0FFF7E8F978610AE0FFF7E4F9C2
:1027F80002467B69D31A41F28832934201D90323F6
:102808005EE1754BD3F8F03003F00203002BEDD1F5
:102818007B681B6803F02003002B36D07B685B6A5B
:10282800002B19D06C4B1B686B4A43F48053136020
:10283800FFF7C2F9786108E0FFF7BEF902467B6945
:10284800D31A022B01D903233AE1634B1B6803F423
:102858000053002BF0D018E05F4B1B685E4A23F44E
:1028680080531360FFF7A8F9786108E0FFF7A4F92F
:1028780002467B69D31A022B01D9032320E1564B68
:102888001B6803F40053002BF0D17B689B6A002B74
:1028980000F01581FB69182B00F0AF807B689B6AFC
:1028A800022B40F086804C4B1B684B4A23F0807308
:1028B8001360FFF781F9786108E0FFF77DF90246B8
:1028C8007B69D31A022B01D90323F9E0424B1B6819
:1028D80003F00073002BF0D13F4B9B6A23F47C5329
:1028E80023F003037A68D16A7A68126B12020A43EA
:1028F800394913438B627B685B6B013BC3F3080266
:102908007B689B6B013B5B029BB21A437B68DB6B6A
:10291800013B1B0403F4FE031A437B681B6C013B59
:102928001B0603F0FE432C4913434B632A4B9B6A57
:10293800294A23F0100393627B68DB6C264ADB008C
:102948009363254B9B6A244A43F010039362224BFE
:102958009B6A23F00C027B685B6C1F4913438B62F4
:102968001D4B9B6A23F020027B689B6C1A4913431A
:102978008B62194B9B6A184A43F480339362164B57
:102988001B68154A43F080731360FFF715F97861E7
:1029980008E0FFF711F902467B69D31A022B01D927
:1029A80003238DE00C4B1B6803F00073002BF0D061
:1029B80085E0094B1B68084A23F080731360FFF712
:1029C800FBF878610AE0FFF7F7F802467B69D31A4B
:1029D800022B03D9032373E0000C02443A4B1B6813
:1029E80003F00073002BEED1374B9B6A364A23F471
:1029F800E02323F00303936261E0334B9B6A3B615E
:102A0800314B5B6BFB607B689B6A012B31D03B6968
:102A180003F003027B68DB6A9A422AD13B691B0AEE
:102A280003F03F027B681B6B9A4222D1FB68C3F319
:102A380008027B685B6B013B9A421AD1FB685B0A10
:102A480003F07F027B689B6B013B9A4211D1FB68C4
:102A58001B0C03F07F027B68DB6B013B9A4208D1B9
:102A6800FB681B0E03F07F027B681B6C013B9A42DC
:102A780001D0012324E0144B9B6BDB08C3F30C0249
:102A88007B68DB6C9A421AD00F4B9B6A0E4A23F084
:102A980010039362FFF790F8786100BFFFF78CF896
:102AA80002467B699342F9D07B68DB6C064ADB00FF
:102AB8009363054B9B6A044A43F010039362002317
:102AC80018462037BD4680BD000C024480B584B04E
:102AD80000AF786039607B68002B01D101239EE14B
:102AE800834B1B6803F00F033A689A4210D9804B56
:102AF8001B6823F00F027E493B6813430B607C4B35
:102B08001B6803F00F033A689A4201D0012386E15B
:102B18007B681B6803F01003002B12D07B685A698E
:102B2800744B1B6A1B0A03F070039A4209D9714B54
:102B38001B6A23F4E0427B685B691B026D491343FF
:102B48000B627B681B6803F00803002B12D07B68BC
:102B58001A69684B1B6A1B0903F070039A4209D96A
:102B6800644B1B6A23F4E0627B681B691B016149A3
:102B780013430B627B681B6803F00403002B10D01F
:102B88007B68DA685B4B1B6A03F070039A4208D9CA
:102B9800584B1B6A23F070027B68DB685549134366
:102BA8000B627B681B6803F00203002B10D07B6864
:102BB8009A68504B1B6A03F00F039A4208D94D4B91
:102BC8001B6A23F00F027B689B684A4913430B6218
:102BD8007B681B6803F00103002B00F093807B687F
:102BE8005B68032B07D1434B1B6803F00073002B72
:102BF80021D1012313E17B685B68022B07D13D4B90
:102C08001B6803F40033002B15D1012307E17B680F
:102C18005B68012B07D1374B1B6803F40073002B4B
:102C280009D10123FBE0334B1B6803F00203002B9F
:102C380001D10123F3E02F4BDB6923F003027B680A
:102C48005B682C491343CB61FEF7B6FFF8607B68DD
:102C58005B68032B12D10AE0FEF7AEFF0246FB6861
:102C6800D31A41F28832934201D90323D7E0214B8A
:102C7800DB6903F01803182BEED143E07B685B682F
:102C8800022B12D10AE0FEF797FF0246FB68D31A1F
:102C980041F28832934201D90323C0E0154BDB6926
:102CA80003F01803102BEED12CE07B685B68012B36
:102CB80022D10AE0FEF780FF0246FB68D31A41F2F0
:102CC8008832934201D90323A9E00A4BDB6903F058
:102CD8001803082BEED115E0FEF76EFF0246FB68DD
:102CE800D31A41F28832934206D9032397E000BFF2
:102CF80000200240000C02444B4BDB6903F0180330
:102D0800002BE9D17B681B6803F00203002B10D06D
:102D18007B689A68444B1B6A03F00F039A4208D2F7
:102D2800414B1B6A23F00F027B689B683E491343A3
:102D38000B623E4B1B6803F00F033A689A4210D2AD
:102D48003A4B1B6823F00F0238493B6813430B606A
:102D5800364B1B6803F00F033A689A4201D00123EF
:102D68005DE07B681B6803F00403002B10D07B68D0
:102D7800DA682D4B1B6A03F070039A4208D22A4B7B
:102D88001B6A23F070027B68DB68274913430B62D8
:102D98007B681B6803F00803002B12D07B681A6954
:102DA800214B1B6A1B0903F070039A4209D21E4B80
:102DB8001B6A23F4E0627B681B691B011A491343F1
:102DC8000B627B681B6803F01003002B12D07B6832
:102DD8005A69154B1B6A1B0A03F070039A4209D201
:102DE800114B1B6A23F4E0427B685B691B020E49A6
:102DF80013430B6200F022F802460B4B1B6A03F0E8
:102E08000F030B49CB5C22FA03F30A4A13600A4BFF
:102E18001B681846FEF746FE0346FB72FB7A184607
:102E28001037BD4680BD00BF000C024400200240A0
:102E3800D8BD0008000000200400002080B489B03C
:102E480000AF8C4BDB6903F01803082B02D18A4BC7
:102E5800FB6107E1874BDB6903F01803002B12D1F4
:102E6800844B1B6803F02003002B09D0814B1B689F
:102E7800DB0803F00303814A22FA03F3FB61F1E064
:102E88007E4BFB61EEE07B4BDB6903F01803102BF4
:102E980002D17B4BFB61E5E0764BDB6903F018035D
:102EA800182B40F0DD80734B9B6A03F003037B61B2
:102EB800704B9B6A1B0A03F03F033B616D4B9B6A97
:102EC8001B0903F00103FB606A4B9B6BDB08C3F330
:102ED8000C03FA6802FB03F307EE903AF8EE677A00
:102EE800C7ED027A3B69002B00F0B7807B69012BA4
:102EF80003D07B69032B56D077E05E4B1B6803F049
:102F08002003002B2DD05B4B1B68DB0803F0030369
:102F18005A4A22FA03F37B607B6807EE903AF8EE90
:102F2800676A3B6907EE903AF8EE677A86EEA77A09
:102F3800504B5B6BC3F3080307EE903AF8EE676AF1
:102F480097ED026ADFED4F5AC6EE257A76EEA77A3C
:102F5800F7EE006A77EEA67A67EE277AC7ED067A6B
:102F680065E03B6907EE903AF8EE677ADFED466A6E
:102F780086EEA77A3F4B5B6BC3F3080307EE903AE4
:102F8800F8EE676A97ED026ADFED3E5AC6EE257ADB
:102F980076EEA77AF7EE006A77EEA67A67EE277ADA
:102FA800C7ED067A43E03B6907EE903AF8EE677A98
:102FB800DFED366A86EEA77A2E4B5B6BC3F3080308
:102FC80007EE903AF8EE676A97ED026ADFED2D5A40
:102FD800C6EE257A76EEA77AF7EE006A77EEA67A3D
:102FE80067EE277AC7ED067A21E03B6907EE903A4B
:102FF800F8EE677ADFED266A86EEA77A1D4B5B6BE3
:10300800C3F3080307EE903AF8EE676A97ED026A91
:10301800DFED1C5AC6EE257A76EEA77AF7EE006A3F
:1030280077EEA67A67EE277AC7ED067A00BF114BCE
:103038005B6B5B0A03F07F0301333B603B6807EE81
:10304800903AB8EE677AD7ED066AC6EE877AFCEE54
:10305800E77A17EE903AFB6104E00023FB6101E098
:10306800064BFB61FB6918462437BD465DF8047BB7
:10307800704700BF000C024400093D000090D003D7
:1030880000127A00000000460024744C0024F44A20
:103098000024744A80B500AFFFF7D0FE0246084B03
:1030A8001B6A03F00F030749CB5C03F01F0322FAE6
:1030B80003F3054A1360044B1B68184680BD00BF24
:1030C800000C0244D8BD00080000002080B500AF05
:1030D800FFF7E0FF0246064B1B6A1B0903F00703D4
:1030E8000449CB5C03F01F0322FA03F3184680BDA2
:1030F800000C0244E8BD000880B500AFFFF7CAFF26
:103108000246064B1B6A1B0A03F007030449CB5C03
:1031180003F01F0322FA03F3184680BD000C024493
:10312800E8BD000880B500AFFFF7B4FF0246064BC4
:103138001B6A1B0B03F007030449CB5C03F01F0356
:1031480022FA03F3184680BD000C0244E8BD0008CB
:103158002DE9B04FBAB000AFC7F8D400002387F804
:10316800E330002387F8E230D7F8D430D3E90023DE
:1031780002F08074002554EA05030BD0CD4BD3F838
:10318800E83023F04041D7F8D4309B6DC94A0B434F
:10319800C2F8E830D7F8D430D3E9002302F00108A8
:1031A8004FF0000958EA090342D0D7F8D430DB6D54
:1031B800052B23D801A252F823F000BF0D320008D6
:1031C800DD310008F13100080D3200080D32000829
:1031D8000D320008D7F8D4300833184603F00CF93C
:1031E800034687F8E3300EE0D7F8D430303318467A
:1031F80003F09AF9034687F8E33004E0012387F8DF
:10320800E33000E000BF97F8E330002B0CD1A94B66
:10321800D3F8D83023F00701D7F8D430DB6DA54AAE
:103228000B43C2F8D83003E097F8E33087F8E23070
:10323800D7F8D430D3E9002302F0020A4FF0000B8C
:103248005AEA0B0300F08880D7F8D4301B6E282B7D
:1032580068D801A252F823F0353300082D3300084E
:103268002D3300082D3300082D3300082D330008B6
:103278002D3300082D330008053300082D330008CE
:103288002D3300082D3300082D3300082D33000896
:103298002D3300082D330008193300082D3300089A
:1032A8002D3300082D3300082D3300082D33000876
:1032B8002D3300082D330008353300082D3300085E
:1032C8002D3300082D3300082D3300082D33000856
:1032D8002D3300082D330008353300082D3300083E
:1032E8002D3300082D3300082D3300082D33000836
:1032F8002D3300082D33000835330008D7F8D430B3
:103308000833184603F078F8034687F8E3300EE0F0
:10331800D7F8D4303033184603F006F9034687F857
:10332800E33004E0012387F8E33000E000BF97F8BA
:10333800E330002B0CD15F4BD3F8D83023F03801A1
:10334800D7F8D4301B6E5B4A0B43C2F8D83003E081
:1033580097F8E33087F8E230D7F8D430D3E9002380
:1033680002F00403C7F8C8300023C7F8CC30D7E907
:1033780032120B4613434ED0D7F8D4305B6EB3F5F8
:10338800A07F2CD0B3F5A07F25D8B3F5807F28D0B7
:10339800B3F5807F1FD8C02B25D0C02B1BD8802B1E
:1033A8000FD0802B17D8002B1FD0402B13D1D7F864
:1033B800D4300833184603F01FF8034687F8E33083
:1033C80014E0D7F8D4303033184603F0ADF803468C
:1033D80087F8E3300AE0012387F8E33006E000BF0E
:1033E80004E000BF02E000BF00E000BF97F8E33050
:1033F800002B0CD12F4BD3F8D83023F4E071D7F839
:10340800D4305B6E2B4A0B43C2F8D83003E097F8F0
:10341800E33087F8E230D7F8D430D3E9002302F05C
:103428000803C7F8C0300023C7F8C430D7E9301202
:103438000B46134356D0D7F8D4309B6EB3F5206FA4
:1034480031D0B3F5206F2AD8B3F5006F2DD0B3F57E
:10345800006F24D8B3F5C06F29D0B3F5C06F1ED85C
:10346800B3F5806F11D0B3F5806F18D8002B23D037
:10347800B3F5007F13D1D7F8D4300833184602F0DB
:10348800BBFF034687F8E33017E0D7F8D430303372
:10349800184603F049F8034687F8E3300DE00123A6
:1034A80087F8E33009E000BF07E000BF05E000BF90
:1034B80003E000BF000C024400BF97F8E330002B84
:1034C8000CD1B94BD3F8D83023F46061D7F8D43095
:1034D8009B6EB54A0B43C2F8D83003E097F8E33047
:1034E80087F8E230D7F8D430D3E9002302F010038C
:1034F800C7F8B8300023C7F8BC30D7E92E120B46FE
:10350800134353D0D7F8D430DB6EB3F5A04F31D086
:10351800B3F5A04F2AD8B3F5804F2DD0B3F5804F1F
:1035280024D8B3F5405F29D0B3F5405F1ED8B3F572
:10353800005F11D0B3F5005F18D8002B20D0B3F589
:10354800805F13D1D7F8D4300833184602F054FFFF
:10355800034687F8E33014E0D7F8D4303033184600
:1035680002F0E2FF034687F8E3300AE0012387F818
:10357800E33006E000BF04E000BF02E000BF00E067
:1035880000BF97F8E330002B0CD1874BD3F8D83025
:1035980023F4E041D7F8D430DB6E834A0B43C2F8FA
:1035A800D83003E097F8E33087F8E230D7F8D43022
:1035B800D3E9002302F02003C7F8B0300023C7F88E
:1035C800B430D7E92C120B46134353D0D7F8D43074
:1035D8001B6FB3F5203F31D0B3F5203F2AD8B3F5A0
:1035E800003F2DD0B3F5003F24D8B3F5C03F29D014
:1035F800B3F5C03F1ED8B3F5803F11D0B3F5803F77
:1036080018D8002B20D0B3F5004F13D1D7F8D430F9
:103618000833184602F0F0FE034687F8E33014E05A
:10362800D7F8D4303033184602F07EFF034687F8C7
:10363800E3300AE0012387F8E33006E000BF04E046
:1036480000BF02E000BF00E000BF97F8E330002BA6
:103658000CD1554BD3F8D83023F46031D7F8D43097
:103668001B6F514A0B43C2F8D83003E097F8E33098
:1036780087F8E230D7F8D430D3E9002302F4805336
:10368800C7F8A8300023C7F8AC30D7E92A120B4690
:10369800134353D0D7F8D4305B6FB3F1A06F31D058
:1036A800B3F1A06F2AD8B3F1806F2DD0B3F1806F3A
:1036B80024D8B3F1407F29D0B3F1407F1ED8B3F1AD
:1036C800007F11D0B3F1007F18D8002B20D0B3F1C0
:1036D800807F13D1D7F8D4300833184602F08CFE17
:1036E800034687F8E33014E0D7F8D430303318466F
:1036F80002F01AFF034687F8E3300AE0012387F84F
:10370800E33006E000BF04E000BF02E000BF00E0D5
:1037180000BF97F8E330002B0CD1234BD3F8E030EF
:1037280023F0E061D7F8D4305B6F1F4A0B43C2F82F
:10373800E03003E097F8E33087F8E230D7F8D43088
:10374800D3E9002302F40053C7F8A0300023C7F8D8
:10375800A430D7E928120B4613433DD0D7F8D4300C
:103768009B6FB3F5403F1BD0B3F5403F14D8B3F57A
:10377800003F17D0B3F5003F0ED8002B16D0B3F595
:10378800803F09D1D7F8D4303033184602F0CCFE48
:10379800034687F8E3300AE0012387F8E33006E0C0
:1037A80000BF04E000BF02E0000C024400BF97F82D
:1037B800E330002B0CD1994BD3F8E43023F440319B
:1037C800D7F8D4309B6F954A0B43C2F8E43003E036
:1037D80097F8E33087F8E230D7F8D430D3E90023FC
:1037E80002F48043C7F898300023C7F89C30D7E923
:1037F80026120B4613433BD0D7F8D430DB6FB3F512
:10380800402F1BD0B3F5402F14D8B3F5002F17D095
:10381800B3F5002F0ED8002B14D0B3F5802F09D1A3
:10382800D7F8D4303033184602F07EFE034687F8C6
:10383800E33008E0012387F8E33004E000BF02E04A
:1038480000BF00E000BF97F8E330002B0CD1734BAA
:10385800D3F8E43023F44021D7F8D430DB6F6F4A33
:103868000B43C2F8E43003E097F8E33087F8E2301E
:10387800D7F8D430D3E9002302F40043C7F89030D6
:103888000023C7F89430D7E924120B4613433DD0E0
:10389800D7F8D430D3F88030B3F5401F1BD0B3F538
:1038A800401F14D8B3F5001F17D0B3F5001F0ED86A
:1038B800002B14D0B3F5801F09D1D7F8D43030339A
:1038C800184602F031FE034687F8E33008E001238A
:1038D80087F8E33004E000BF02E000BF00E000BF6B
:1038E80097F8E330002B0DD14C4BD3F8E43023F498
:1038F8004011D7F8D430D3F88030484A0B43C2F887
:10390800E43003E097F8E33087F8E230D7F8D430B2
:10391800D3E9002302F48033C7F888300023C7F8BE
:103928008C30D7E922120B46134335D0D7F8D43060
:10393800D3F88430B3F1007F15D0B3F1007F0ED8EF
:10394800002B12D0B3F1807F09D1D7F8D4303033AF
:10395800184602F0E9FD034687F8E33006E0012344
:1039680087F8E33002E000BF00E000BF97F8E330DB
:10397800002B0DD1294BD3F8E43023F04071D7F850
:10398800D430D3F88430254A0B43C2F8E43003E03E
:1039980097F8E33087F8E230D7F8D430D3E900233A
:1039A8000021C7F8801003F48053C7F88430D7E9A2
:1039B80020120B46134337D0D7F8D430D3F88830C9
:1039C800B3F1006F15D0B3F1006F0ED8002B12D0F1
:1039D800B3F1806F09D1D7F8D4303033184602F0EC
:1039E800A3FD034687F8E33006E0012387F8E330B8
:1039F80002E000BF00E000BF97F8E330002B0FD1D2
:103A0800064BD3F8E43023F04061D7F8D430D3F82C
:103A18008830024A0B43C2F8E43005E0000C024447
:103A280097F8E33087F8E230D7F8D430D3E90023A9
:103A38000021B96703F40063FB67D7E91E120B4640
:103A480013430ED0B84BDB69B74A23F40043D36164
:103A5800B54BD969D7F8D430D3F8C830B24A0B433C
:103A6800D361D7F8D430D3E9002302F400333B679D
:103A780000237B67D7E91C120B46134355D0D7F8B0
:103A8800D430D3F88C30B3F5A06F31D0B3F5A06F34
:103A98002AD8B3F5806F2DD0B3F5806F24D8B3F54D
:103AA800407F29D0B3F5407F1ED8B3F5007F11D0F1
:103AB800B3F5007F18D8002B20D0B3F5807F13D141
:103AC800D7F8D4300833184602F096FC034687F836
:103AD800E33014E0D7F8D4303033184602F024FD30
:103AE800034687F8E3300AE0012387F8E33006E06D
:103AF80000BF04E000BF02E000BF00E000BF97F88D
:103B0800E330002B0DD1884BD3F8DC3023F4E0618F
:103B1800D7F8D430D3F88C30834A0B43C2F8DC3062
:103B280003E097F8E33087F8E230D7F8D430D3E9E8
:103B3800002302F48023BB660023FB66D7E91A1230
:103B48000B46134355D0D7F8D430D3F89030B3F59B
:103B5800A04F31D0B3F5A04F2AD8B3F5804F2DD060
:103B6800B3F5804F24D8B3F5405F29D0B3F5405F53
:103B78001ED8B3F5005F11D0B3F5005F18D8002B3D
:103B880020D0B3F5805F13D1D7F8D4300833184666
:103B980002F032FC034687F8E33014E0D7F8D4305B
:103BA8003033184602F0C0FC034687F8E3300AE0D9
:103BB800012387F8E33006E000BF04E000BF02E01D
:103BC80000BF00E000BF97F8E330002B0DD1564B43
:103BD800D3F8DC3023F4E041D7F8D430D3F8903070
:103BE800514A0B43C2F8DC3003E097F8E33087F81A
:103BF800E230D7F8D430D3E9002302F400133B664F
:103C080000237B66D7E918120B46134332D0D7F846
:103C1800D430D3F8A030052B0FD8032B11D2012BA9
:103C280011D9022B09D1D7F8D4300833184602F03D
:103C3800E3FB034687F8E33006E0012387F8E33027
:103C480002E000BF00E000BF97F8E330002B0DD181
:103C5800354BD3F8E83023F00701D7F8D430D3F840
:103C6800A030314A0B43C2F8E83003E097F8E3305C
:103C780087F8E230D7F8D430D3E900230021B965BA
:103C880003F40073FB65D7E916120B46134324D0DF
:103C9800D7F8D430D3F8A430002B05D0082B05D0A2
:103CA800012387F8E33002E000BF00E000BF97F887
:103CB800E330002B0DD11C4BD3F8E83023F008017A
:103CC800D7F8D430D3F8A430174A0B43C2F8E830F9
:103CD80003E097F8E33087F8E230D7F8D430D3E937
:103CE800002302F000733B6500237B65D7E91412BB
:103CF8000B46134300F0B9800C4B5B6A0B4A43F048
:103D080001035362FDF758FFC7F8DC0010E0FDF728
:103D180053FF0246D7F8DC30D31A022B08D9032305
:103D280087F8E3300AE000BF000C024400080244B0
:103D3800BA4B5B6A03F00103002BE8D097F8E33035
:103D4800002B40F08E80B64BD3F8F03003F440736C
:103D5800C7F8E430D7F8E430002B23D0D7F8D430B4
:103D6800D3F8BC20D7F8E43093421BD0AC4BD3F83F
:103D7800F03023F44073C7F8E430A94BD3F8F0309F
:103D8800A74A43F48033C2F8F030A54BD3F8F0309B
:103D9800A34A23F48033C2F8F030A14AD7F8E430BC
:103DA800C2F8F030D7F8E43003F00103002B19D043
:103DB800FDF702FFC7F8DC000DE0FDF7FDFE024647
:103DC800D7F8DC30D21A41F288339A4203D9032358
:103DD80087F8E33006E0924BD3F8F03003F00203A3
:103DE800002BEAD097F8E330002B35D1D7F8D43040
:103DF800D3F8BC3003F44073B3F5407F10D1884B3F
:103E0800DB6923F47C51D7F8D430D3F8BC301B09D4
:103E180023F07F4323F03003814A0B43D36105E04D
:103E28007F4BDB697E4A23F47C53D3617C4BD3F808
:103E3800F0307B4A23F44073C2F8F030784BD3F863
:103E4800F010D7F8D430D3F8BC30C3F30B03744A5E
:103E58000B43C2F8F03008E097F8E33087F8E23017
:103E680003E097F8E33087F8E230D7F8D430D3E9A5
:103E7800002302F08063BB640023FB64D7E91212BD
:103E88000B46134335D0D7F8D430D3F89830302BBD
:103E980014D0302B0ED8202B12D0202B0AD8002B70
:103EA80010D0102B06D15E4B9B6A5D4A43F4003359
:103EB800936208E0012387F8E33004E000BF02E0E2
:103EC80000BF00E000BF97F8E330002B0DD1544B42
:103ED800D3F8E83023F03001D7F8D430D3F898304D
:103EE8004F4A0B43C2F8E83003E097F8E33087F80D
:103EF800E230D7F8D430D3E9002302F480033B64DE
:103F080000237B64D7E910120B46134333D0D7F84C
:103F1800D430D3F89C30002B02D0402B07D010E0CF
:103F28003F4B9B6A3E4A43F4003393620DE0D7F857
:103F3800D4300833184602F05FFA034687F8E330B6
:103F480003E0012387F8E33000BF97F8E330002B44
:103F58000DD1334BD3F8E43023F04001D7F8D430F7
:103F6800D3F89C302E4A0B43C2F8E43003E097F8AC
:103F7800E33087F8E230D7F8D430D3E9002302F0F1
:103F88000063BB630023FB63D7E90E120B461343A0
:103F98004CD0D7F8D430D3F8AC30042B27D801A2B2
:103FA80052F823F0C13F0008CF3F0008E33F000864
:103FB800FF3F0008FF3F0008194B9B6A184A43F46B
:103FC8000033936218E0D7F8D4300833184602F06B
:103FD80013FA034687F8E3300EE0D7F8D4303033CD
:103FE800184602F0A1FA034687F8E33004E00123FB
:103FF80087F8E33000E000BF97F8E330002B11D1D9
:10400800074BD3F8E03023F00701D7F8D430D3F8C2
:10401800AC30034A0B43C2F8E03007E00008024422
:10402800000C024497F8E33087F8E230D7F8D43030
:10403800D3E9002302F080533B6300237B63D7E975
:104048000C120B46134300F08180D7F8D430D3F814
:10405800B030202B5FD801A252F823F0E9400008C5
:104068001F4100081F4100081F4100081F410008A8
:104078001F4100081F4100081F410008F7400008C1
:104088001F4100081F4100081F4100081F41000888
:104098001F4100081F4100081F4100080B4100088C
:1040A8001F4100081F4100081F4100081F41000868
:1040B8001F4100081F4100081F4100082741000850
:1040C8001F4100081F4100081F4100081F41000848
:1040D8001F4100081F4100081F4100082741000830
:1040E800B94B9B6AB84A43F40033936218E0D7F897
:1040F800D4300833184602F07FF9034687F8E330D6
:104108000EE0D7F8D4303033184602F00DFA0346E3
:1041180087F8E33004E0012387F8E33000E000BFCC
:1041280097F8E330002B0DD1A74BD3F8E03023F0FC
:104138003801D7F8D430D3F8B030A34A0B43C2F8CB
:10414800E03003E097F8E33087F8E230D7F8D4306E
:10415800D3E9002302F00053BB620023FB62D7E9D6
:104168000A120B4613434ED0D7F8D430D3F8B430E4
:10417800B3F5807F2ED0B3F5807F27D8C02B2BD006
:10418800C02B23D8802B17D0802B1FD8002B02D010
:10419800402B07D01AE08C4B9B6A8B4A43F40033C0
:1041A80093621AE0D7F8D4300833184602F024F99D
:1041B800034687F8E33010E0D7F8D4303033184698
:1041C80002F0B2F9034687F8E33006E0012387F8E6
:1041D800E33002E000BF00E000BF97F8E330002BB7
:1041E8000DD1794BD3F8E03023F4E072D7F8D4300E
:1041F800D3F8B43074491343C1F8E03003E097F8BA
:10420800E33087F8E230D7F8D430D3E9002302F05E
:1042180080433B6200237B62D7E908120B461343B5
:1042280055D0D7F8D430D3F8B830B3F5206F31D0A3
:10423800B3F5206F2AD8B3F5006F2DD0B3F5006F12
:1042480024D8B3F5C06F29D0B3F5C06F1ED8B3F525
:10425800806F11D0B3F5806F18D8002B20D0B3F53C
:10426800007F13D1D7F8D4300833184602F0C4F8C9
:10427800034687F8E33014E0D7F8D43030331846D3
:1042880002F052F9034687F8E3300AE0012387F881
:10429800E33006E000BF04E000BF02E000BF00E03A
:1042A80000BF97F8E330002B0DD1474BD3F8E0302F
:1042B80023F46062D7F8D430D3F8B83042491343B6
:1042C800C1F8E03003E097F8E33087F8E230D7F838
:1042D800D430D3E900230021B96103F00203FB6164
:1042E800D7E906120B4613433CD0D7F8D430D3F89D
:1042F800A830032B1BD801A252F823F03F43000833
:1043080015430008234300083F4300082E4B9B6ACF
:104318002D4A43F4003393620EE0D7F8D4300833C3
:10432800184602F069F8034687F8E33004E00123F1
:1043380087F8E33000E000BF97F8E330002B0DD199
:10434800214BD3F8E43023F00302D7F8D430D3F864
:10435800A8301D491343C1F8E43003E097F8E3306F
:1043680087F8E230D7F8D430D3E900230021396147
:1043780003F004037B61D7E904120B4613433CD0D6
:10438800D7F8D430D3F89430B3F5007F0ED0B3F516
:10439800007F15D8002B19D0B3F5807F10D10A4BB8
:1043A8009B6A094A43F40033936210E0D7F8D4308B
:1043B8000833184602F020F8034687F8E33006E091
:1043C800012387F8E33002E0000C024400BF97F8AD
:1043D800E330002B0DD13D4BD3F8E83023F4407285
:1043E800D7F8D430D3F8943038491343C1F8E830BB
:1043F80003E097F8E33087F8E230D7F8D430D3E910
:1044080000230021B96003F01003FB60D7E9021212
:104418000B46134338D0D7F8D430D3F8C430302BF8
:104428001BD0302B15D8102B02D0202B07D010E032
:10443800264B9B6A254A43F4003393620EE0D7F873
:10444800D4303033184602F06FF8034687F8E3306B
:1044580004E0012387F8E33000E000BF97F8E33079
:10446800002B0DD1194BD3F8E43023F03002D7F8E4
:10447800D430D3F8C43015491343C1F8E43003E00D
:1044880097F8E33087F8E230D7F8D430D3E900233F
:104498000021396003F008037B60D7E900120B465E
:1044A80013430CD0094BD3F8E83023F0C002D7F8F7
:1044B800D430D3F8C03005491343C1F8E83097F831
:1044C800E2301846E837BD46BDE8B08F000C02441C
:1044D80080B48BB000AF7860AE4B5B6BC3F308035E
:1044E8003B62AC4B9B6A03F00303FB61A94B9B6ADD
:1044F8001B0A03F03F03BB61A64B9B6A1B0903F031
:1045080001037B61A34B9B6BDB08C3F30C037A6944
:1045180002FB03F307EE903AF8EE677AC7ED047AE8
:10452800BB69002B00F02681FB69032B53D0FB6984
:10453800032B6FD8FB69012B03D0FB69022B2BD00F
:1045480068E0944B1B68DB0803F00303924A22FAE5
:1045580003F3FB60FB6807EE903AF8EE676ABB6905
:1045680007EE903AF8EE677A86EEA77A3B6A07EE8E
:10457800903AF8EE676A97ED046ADFED885AC6EE5E
:10458800257A76EEA77AF7EE006A77EEA67A67EED6
:10459800277AC7ED097A68E0BB6907EE903AF8EE2A
:1045A800677ADFED7F6A86EEA77A3B6A07EE903A74
:1045B800F8EE676A97ED046ADFED785AC6EE257A59
:1045C80076EEA77AF7EE006A77EEA67A67EE277A94
:1045D800C7ED097A49E0BB6907EE903AF8EE677AC9
:1045E800DFED706A86EEA77A3B6A07EE903AF8EE3E
:1045F800676A97ED046ADFED695AC6EE257A76EEAA
:10460800A77AF7EE006A77EEA67A67EE277AC7ED03
:10461800097A2AE05F4B1B68DB0803F003035E4A54
:1046280022FA03F3FB60FB6807EE903AF8EE676A3C
:10463800BB6907EE903AF8EE677A86EEA77A3B6A8E
:1046480007EE903AF8EE676A97ED046ADFED535A81
:10465800C6EE257A76EEA77AF7EE006A77EEA67AA6
:1046680067EE277AC7ED097A00BF4A4B1B6803F04B
:104678000073B3F1007F21D1464B9B6A03F480336A
:10468800002B17D0434B5B6B5B0A03F07F0307EEED
:10469800903AF8EE677AB7EE007A37EE877AD7ED78
:1046A800096AC6EE877AFCEEE77A17EE902A7B68ED
:1046B8001A6006E07B6800221A6002E07B6800222C
:1046C8001A60344B1B6803F00073B3F1007F21D1EB
:1046D800304B9B6A03F40033002B17D02D4B5B6BD8
:1046E8001B0C03F07F0307EE903AF8EE677AB7EEFB
:1046F800007A37EE877AD7ED096AC6EE877AFCEE3C
:10470800E77A17EE902A7B685A6006E07B680022F9
:104718005A6002E07B6800225A601E4B1B6803F057
:104728000073B3F1007F21D11A4B9B6A03F48023F5
:10473800002B17D0174B5B6B1B0E03F07F0307EEA4
:10474800903AF8EE677AB7EE007A37EE877AD7EDC7
:10475800096AC6EE877AFCEEE77A17EE902A7B683C
:104768009A6010E07B6800229A600CE07B68002267
:104778009A6008E07B6800221A607B6800225A6011
:104788007B6800229A6000BF2C37BD465DF8047B29
:10479800704700BF000C02440090D00300000046A0
:1047A8000024744A0024F44A80B48BB000AF7860C7
:1047B800AE4BDB6BC3F308033B62AC4BDB6A03F025
:1047C8000303FB61A94BDB6A1B0A03F03F03BB61D0
:1047D800A64BDB6A1B0903F001037B61A34B1B6C2F
:1047E800DB08C3F30C037A6902FB03F307EE903A84
:1047F800F8EE677AC7ED047ABB69002B00F02681D2
:10480800FB69032B53D0FB69032B6FD8FB69012B82
:1048180003D0FB69022B2BD068E0944B1B68DB08A4
:1048280003F00303924A22FA03F3FB60FB6807EEE6
:10483800903AF8EE676ABB6907EE903AF8EE677A45
:1048480086EEA77A3B6A07EE903AF8EE676A97ED2C
:10485800046ADFED885AC6EE257A76EEA77AF7EE77
:10486800006A77EEA67A67EE277AC7ED097A68E0DC
:10487800BB6907EE903AF8EE677ADFED7F6A86EE5D
:10488800A77A3B6A07EE903AF8EE676A97ED046AF2
:10489800DFED785AC6EE257A76EEA77AF7EE006A4B
:1048A80077EEA67A67EE277AC7ED097A49E0BB6901
:1048B80007EE903AF8EE677ADFED706A86EEA77A2F
:1048C8003B6A07EE903AF8EE676A97ED046ADFED07
:1048D800695AC6EE257A76EEA77AF7EE006A77EE81
:1048E800A67A67EE277AC7ED097A2AE05F4B1B683C
:1048F800DB0803F003035E4A22FA03F3FB60FB685C
:1049080007EE903AF8EE676ABB6907EE903AF8EE60
:10491800677A86EEA77A3B6A07EE903AF8EE676AFE
:1049280097ED046ADFED535AC6EE257A76EEA77A3C
:10493800F7EE006A77EEA67A67EE277AC7ED097A6E
:1049480000BF4A4B1B6803F00063B3F1006F21D12D
:10495800464BDB6A03F48033002B17D0434BDB6BE9
:104968005B0A03F07F0307EE903AF8EE677AB7EE3A
:10497800007A37EE877AD7ED096AC6EE877AFCEEB9
:10498800E77A17EE902A7B681A6006E07B680022B7
:104998001A6002E07B6800221A60344B1B6803F03F
:1049A8000063B3F1006F21D1304BDB6A03F40033AD
:1049B800002B17D02D4BDB6B1B0C03F07F0307EE8E
:1049C800903AF8EE677AB7EE007A37EE877AD7ED45
:1049D800096AC6EE877AFCEEE77A17EE902A7B68BA
:1049E8005A6006E07B6800225A6002E07B68002279
:1049F8005A601E4B1B6803F00063B3F1006F21D1AE
:104A08001A4BDB6A03F48023002B17D0174BDB6BA0
:104A18001B0E03F07F0307EE903AF8EE677AB7EEC5
:104A2800007A37EE877AD7ED096AC6EE877AFCEE08
:104A3800E77A17EE902A7B689A6010E07B6800227C
:104A48009A600CE07B6800229A6008E07B6800228C
:104A58001A607B6800225A607B6800229A6000BF57
:104A68002C37BD465DF8047B704700BF000C02443C
:104A78000090D003000000460024744A0024F44A41
:104A880080B48BB000AF7860AE4B5B6CC3F30803A7
:104A98003B62AC4B1B6B03F00303FB61A94B1B6B25
:104AA8001B0A03F03F03BB61A64B1B6B1B0903F0FA
:104AB80001037B61A34B9B6CDB08C3F30C037A698E
:104AC80002FB03F307EE903AF8EE677AC7ED047A33
:104AD800BB69002B00F02681FB69032B53D0FB69CF
:104AE800032B6FD8FB69012B03D0FB69022B2BD05A
:104AF80068E0944B1B68DB0803F00303924A22FA30
:104B080003F3FB60FB6807EE903AF8EE676ABB694F
:104B180007EE903AF8EE677A86EEA77A3B6A07EED8
:104B2800903AF8EE676A97ED046ADFED885AC6EEA8
:104B3800257A76EEA77AF7EE006A77EEA67A67EE20
:104B4800277AC7ED097A68E0BB6907EE903AF8EE74
:104B5800677ADFED7F6A86EEA77A3B6A07EE903ABE
:104B6800F8EE676A97ED046ADFED785AC6EE257AA3
:104B780076EEA77AF7EE006A77EEA67A67EE277ADE
:104B8800C7ED097A49E0BB6907EE903AF8EE677A13
:104B9800DFED706A86EEA77A3B6A07EE903AF8EE88
:104BA800676A97ED046ADFED695AC6EE257A76EEF4
:104BB800A77AF7EE006A77EEA67A67EE277AC7ED4E
:104BC800097A2AE05F4B1B68DB0803F003035E4A9F
:104BD80022FA03F3FB60FB6807EE903AF8EE676A87
:104BE800BB6907EE903AF8EE677A86EEA77A3B6AD9
:104BF80007EE903AF8EE676A97ED046ADFED535ACC
:104C0800C6EE257A76EEA77AF7EE006A77EEA67AF0
:104C180067EE277AC7ED097A00BF4A4B1B6803F095
:104C28000053B3F1005F21D1464B1B6B03F4803373
:104C3800002B17D0434B5B6C5B0A03F07F0307EE36
:104C4800903AF8EE677AB7EE007A37EE877AD7EDC2
:104C5800096AC6EE877AFCEEE77A17EE902A7B6837
:104C68001A6006E07B6800221A6002E07B68002276
:104C78001A60344B1B6803F00053B3F1005F21D175
:104C8800304B1B6B03F40033002B17D02D4B5B6CA0
:104C98001B0C03F07F0307EE903AF8EE677AB7EE45
:104CA800007A37EE877AD7ED096AC6EE877AFCEE86
:104CB800E77A17EE902A7B685A6006E07B68002244
:104CC8005A6002E07B6800225A601E4B1B6803F0A2
:104CD8000053B3F1005F21D11A4B1B6B03F48023FF
:104CE800002B17D0174B5B6C1B0E03F07F0307EEEE
:104CF800903AF8EE677AB7EE007A37EE877AD7ED12
:104D0800096AC6EE877AFCEEE77A17EE902A7B6886
:104D18009A6010E07B6800229A600CE07B680022B1
:104D28009A6008E07B6800221A607B6800225A605B
:104D38007B6800229A6000BF2C37BD465DF8047B73
:104D4800704700BF000C02440090D00300000046EA
:104D58000024744A0024F44A90B58FB000AFC7E924
:104D68000001D7E9000100F17E44214350D1264BD0
:104D7800D3F8F03003F440733B63234BD3F8F0309F
:104D880003F00203022B08D13B6BB3F5807F04D1FB
:104D98004FF400437B6301F020BB1B4BD3F8F0308A
:104DA80003F00063B3F1006F08D13B6BB3F5007FEC
:104DB80004D14FF4FA437B6301F00FBB124B1B681D
:104DC80003F40033B3F5003F19D13B6BB3F5407FD3
:104DD80015D10D4BDB6903F47C53B3F5007F0AD37F
:104DE800094BDB691B0A03F03F03084AB2FBF3F3E4
:104DF8007B6301F0F2BA00237B6301F0EEBA002373
:104E08007B6301F0EABA00BF000C024400127A008A
:104E1800D7E90001A1F5805450EA040100F0158695
:104E2800D7E90001012871F5805181F0D382D7E9D3
:104E38000001A1F5007450EA040100F0D884D7E914
:104E48000001012871F5007181F0C482D7E90001E1
:104E5800A1F1100450EA040101F08882D7E90001A9
:104E6800012871F1100181F0B582D7E90001A1F1A3
:104E7800080450EA040101F0FE81D7E90001012885
:104E880071F1080181F0A682D7E900010C1F50EAF0
:104E9800040100F05387D7E90001012871F10401EA
:104EA80081F09882D7E900018C1E50EA040101F0D4
:104EB8007381D7E90001012871F1020181F08A822A
:104EC800D7E9000100F14044214301F0FE80D7E911
:104ED8000001CB4CA04271F1000181F07B82D7E93F
:104EE800000100F16044214301F07680D7E9000118
:104EF800C44CA04271F1000181F06C82D7E9000135
:104F080000F17044214300F0B587D7E90001BE4C99
:104F1800A04271F1000181F05D82D7E9000100F142
:104F28007844214300F03887D7E90001B74CA04204
:104F380071F1000181F04E82D7E9000100F17C4453
:104F4800214301F0CD81D7E90001B14CA04271F1B4
:104F5800000181F03F82D7E90001A0F580042143D8
:104F680000F0D980D7E90001AA4CA04271F10001F4
:104F780081F03082D7E90001A0F50014214300F048
:104F8800DA83D7E90001A44CA04271F1000181F055
:104F98002182D7E90001A0F58024214300F027866B
:104FA800D7E900019D4CA04271F1000181F0128205
:104FB800D7E90001A0F50034214300F07A85D7E94C
:104FC8000001974CA04271F1000181F00382D7E9FA
:104FD8000001A0F58034214300F0FB84D7E90001EB
:104FE800B0F1011F71F1000181F0F481D7E90001EE
:104FF800A0F50044214300F0A984D7E9000148F254
:105008000104A04271F1000181F0E481D7E90001B7
:10501800A0F58044214300F05684D7E9000144F20A
:105028000104A04271F1000181F0D481D7E90001A7
:10503800A0F50054214300F00384D7E9000142F2AF
:105048000104A04271F1000181F0C481D7E9000197
:10505800212871F1000155D2D7E90001014301F07F
:10506800B981D7E90001421E41F1FF33202A73F1CB
:10507800000181F0AF811F2A01F2AC8101A151F832
:1050880022F000BF6351000861520008DD63000888
:1050980021530008DD630008DD630008DD630008B4
:1050A800F1530008DD630008DD630008DD630008D4
:1050B800DD630008DD630008DD630008DD630008C8
:1050C800D5540008DD630008DD630008DD630008CF
:1050D800DD630008DD630008DD630008DD630008A8
:1050E800DD630008DD630008DD630008DD63000898
:1050F800DD630008DD630008DD630008DD63000888
:10510800AB550008D7E90023A2F580510B4300F006
:10511800B38201F05FB9434BD3F8E43003F04003A6
:105128003B633B6B002B08D107F120031846FFF7C0
:10513800CFF97B6A7B6301F050B93B6B402B08D1F8
:1051480007F114031846FFF72FFBFB697B6301F097
:1051580044B900237B6301F040B9324BD3F8D8300F
:1051680003F007033B633B6B002B04D1FDF7C4FF3F
:10517800786301F032B92B4B1B6803F00063B3F17D
:10518800006F0AD13B6B012B07D107F114031846B6
:10519800FFF70AFBBB697B635CE0224B1B6803F0EB
:1051A8000053B3F1005F0AD13B6B022B07D107F123
:1051B80008031846FFF764FCFB687B634AE0194B59
:1051C8001B6803F00203022B0CD13B6B032B09D1A4
:1051D800144B1B68DB0803F00303134A22FA03F39A
:1051E8007B6337E00F4B1B6803F40073B3F5007F54
:1051F8001ED13B6B042B1BD10C4B7B632AE000BFF9
:10520800010000400100002001000010010000081A
:10521800010000040100400001002000010004001A
:1052280001000200000C02440090D00300093D0078
:10523800A34BD3F8F03003F00203022B06D13B6BEB
:10524800052B03D14FF400437B6303E000237B630A
:1052580001F0C3B801F0C1B8994BD3F8D83003F0C6
:1052680038033B633B6B002B04D1FDF72FFF7863BA
:1052780001F0B3B8924B1B6803F00063B3F1006F01
:105288000AD13B6B082B07D107F114031846FFF727
:105298008BFABB697B633DE03B6B102B08D107F1B0
:1052A80008031846FFF7ECFBFB687B6301F095B831
:1052B800834B1B6803F00203022B0CD13B6B182BAA
:1052C80009D17F4B1B68DB0803F003037D4A22FAF0
:1052D80003F37B631EE07A4B1B6803F40073B3F59A
:1052E800007F05D13B6B202B02D1774B7B6311E00C
:1052F800734BD3F8F03003F00203022B06D13B6B5B
:10530800282B03D14FF400437B6303E000237B6326
:1053180001F063B801F061B8694BD3F8D83003F4F1
:10532800E0733B633B6B002B04D1FDF7CFFE786342
:1053380001F053B8624B1B6803F00063B3F1006FD0
:105348000AD13B6B402B07D107F114031846FFF72E
:105358002BFABB697B6345E0594B1B6803F000538C
:10536800B3F1005F0AD13B6B802B07D107F108032B
:105378001846FFF785FBFB687B6333E0504B1B68DF
:1053880003F00203022B0CD13B6BC02B09D14C4B11
:105398001B68DB0803F003034A4A22FA03F37B6322
:1053A80020E0474B1B6803F40073B3F5007F06D178
:1053B8003B6BB3F5807F02D1434B7B6312E0404BDC
:1053C800D3F8F03003F00203022B07D13B6BB3F59F
:1053D800A07F03D14FF400437B6303E000237B638A
:1053E80000F0FBBF00F0F9BF354BD3F8D83003F419
:1053F80060633B633B6B002B04D1FDF767FE78636A
:1054080000F0EBBF2E4B1B6803F00063B3F1006F95
:105418000BD13B6BB3F5007F07D107F11403184696
:10542800FFF7C2F9BB697B6347E0254B1B6803F0B4
:105438000053B3F1005F0BD13B6BB3F5806F07D11D
:1054480007F108031846FFF71BFBFB687B6334E092
:105458001B4B1B6803F00203022B0DD13B6BB3F50A
:10546800C06F09D1164B1B68DB0803F00303154A0C
:1054780022FA03F37B6320E0114B1B6803F40073EB
:10548800B3F5007F06D13B6BB3F5006F02D10E4B2D
:105498007B6312E00A4BD3F8F03003F00203022BCF
:1054A80007D13B6BB3F5206F03D14FF400437B6307
:1054B80003E000237B6300F090BF00F08EBF00BFC5
:1054C800000C02440090D00300093D00A54BD3F81E
:1054D800D83003F4E0433B633B6B002B04D1FDF76A
:1054E800F5FD786300F079BF9E4B1B6803F00063FD
:1054F800B3F1006F0BD13B6BB3F5805F07D107F1B8
:1055080014031846FFF750F9BB697B6347E0954BD6
:105518001B6803F00053B3F1005F0BD13B6BB3F58D
:10552800005F07D107F108031846FFF7A9FAFB68DF
:105538007B6334E08B4B1B6803F00203022B0DD115
:105548003B6BB3F5405F09D1864B1B68DB0803F062
:105558000303854A22FA03F37B6320E0814B1B682F
:1055680003F40073B3F5007F06D13B6BB3F5804FAE
:1055780002D17E4B7B6312E07A4BD3F8F03003F014
:105588000203022B07D13B6BB3F5A04F03D14FF4B5
:1055980000437B6303E000237B6300F01EBF00F041
:1055A8001CBF704BD3F8D83003F460333B633B6BBC
:1055B800002B04D1FDF78AFD786300F00EBF694B1C
:1055C8001B6803F00063B3F1006F0BD13B6BB3F5BD
:1055D800004F07D107F114031846FFF7E5F8BB6938
:1055E8007B6347E05F4B1B6803F00053B3F1005F38
:1055F8000BD13B6BB3F5803F07D107F10803184681
:10560800FFF73EFAFB687B6334E0564B1B6803F0F8
:105618000203022B0DD13B6BB3F5C03F09D1514BAF
:105628001B68DB0803F003034F4A22FA03F37B638A
:1056380020E04C4B1B6803F40073B3F5007F06D1E0
:105648003B6BB3F5003F02D1484B7B6312E0454BFF
:10565800D3F8F03003F00203022B07D13B6BB3F50C
:10566800203F03D14FF400437B6303E000237B63B7
:1056780000F0B3BE00F0B1BE3A4BD3F8E03003F00F
:10568800E0633B633B6B002B04D1FDF74BFD786374
:1056980000F0A3BE3B6BB3F1807F08D107F1140380
:1056A8001846FFF781F8BB697B6300F096BE3B6B39
:1056B800B3F1007F08D107F108031846FFF7E0F9B6
:1056C800FB687B6300F089BE264B1B6803F002036E
:1056D800022B0DD13B6BB3F1407F09D1214B1B68E5
:1056E800DB0803F00303204A22FA03F37B6320E07C
:1056F8001C4B1B6803F40073B3F5007F06D13B6BAA
:10570800B3F1806F02D1194B7B6312E0154BD3F8CC
:10571800F03003F00203022B07D13B6BB3F1A06F0B
:1057280003D14FF400437B6303E000237B6300F065
:1057380054BE00F052BE0B4BD3F8E83003F0070319
:105748003B633B6B002B04D1FDF7A4FC786300F0AE
:1057580044BE3B6B012B0BD1FDF770FB786300F067
:105768003CBE00BF000C02440090D00300093D007D
:105778003B6B022B08D107F114031846FFF714F806
:10578800FB697B6300F029BE9F4B1B6803F4003361
:10579800B3F5003F05D13B6B032B02D19B4B7B63D9
:1057A80023E0994B1B6803F00203022B0CD13B6BDF
:1057B800042B09D1944B1B68DB0803F00303944ABC
:1057C80022FA03F37B6310E08F4B1B6803F400732A
:1057D800B3F5007F05D13B6B052B02D18D4B7B6365
:1057E80003E000237B6300F0F8BD00F0F6BD864BB4
:1057F800D3F8E83003F008033B63834BD3F8F03069
:1058080003F00203022B06D13B6B002B03D14FF4AC
:1058180000437B6312E07C4BD3F8F03003F0006365
:10582800B3F1006F06D13B6B082B03D14FF4FA4359
:105838007B6303E000237B6300F0CFBD00F0CDBDA8
:10584800714BD3F8E43003F440333B633B6B002BDC
:1058580004D1FDF73BFC786300F0BFBD3B6BB3F5AB
:10586800803F08D107F108031846FFF709F93B699B
:105878007B6300F0B2BD644B1B6803F00203022B8C
:105888000DD13B6BB3F5003F09D15F4B1B68DB08BB
:1058980003F003035E4A22FA03F37B6311E05A4BD9
:1058A8001B6803F40073B3F5007F06D13B6BB3F5B7
:1058B800403F02D1574B7B6303E000237B6300F03A
:1058C8008CBD00F08ABD504BD3F8E43003F440237C
:1058D8003B633B6B002B04D1FDF7F8FB786300F0CA
:1058E8007CBD3B6BB3F5802F08D107F10803184640
:1058F800FFF7C6F83B697B6300F06FBD424B1B683E
:1059080003F00203022B0DD13B6BB3F5002F09D135
:105918003D4B1B68DB0803F003033D4A22FA03F3FF
:105928007B6311E0384B1B6803F40073B3F5007F09
:1059380006D13B6BB3F5402F02D1364B7B6303E0B6
:1059480000237B6300F049BD00F047BD2E4BD3F820
:10595800E43003F440133B633B6B002B04D1FDF7A9
:10596800E1FB786300F039BD3B6BB3F5801F08D1CC
:1059780007F108031846FFF783F83B697B6300F0DB
:105988002CBD214B1B6803F00203022B0DD13B6B8E
:10599800B3F5001F09D11C4B1B68DB0803F0030398
:1059A8001B4A22FA03F37B6311E0174B1B6803F4CD
:1059B8000073B3F5007F06D13B6BB3F5401F02D1EE
:1059C800144B7B6303E000237B6300F006BD00F00B
:1059D80004BD0D4BD3F8E43003F040733B633B6BDD
:1059E800002B04D1FDF772FB786300F0F6BC3B6B2B
:1059F800B3F1807F10D107F108031846FFF740F88C
:105A08003B697B6300F0E9BC000C024400127A0099
:105A18000090D00300093D00A44B1B6803F002036B
:105A2800022B0ED13B6BB3F1007F0AD19F4B1B6851
:105A3800DB0803F003039E4A22FA03F37B6300F0BA
:105A4800CCBC00237B6300F0C8BC984BD3F8E4308F
:105A580003F040633B633B6B002B04D1FDF762FB13
:105A6800786300F0BABC3B6BB3F1806F08D107F1E3
:105A780008031846FFF704F83B697B6300F0ADBCE8
:105A88008A4B1B6803F00203022B0ED13B6BB3F168
:105A9800006F0AD1854B1B68DB0803F00303844AB7
:105AA80022FA03F37B6300F098BC00237B6300F0C9
:105AB80094BC7E4BD3F8DC3003F4E0633B633B6B70
:105AC800B3F5A06F56D03B6BB3F5A06F00F28B8097
